S017000041544D65676131365F54696D6572312E7372656306
S11300000C942A000C9434000C9434000C943400A6
S11300100C9434000C9434000C9434000C9434008C
S11300200C9448000C9434000C9434000C94340068
S11300300C9434000C9434000C9434000C9434006C
S11300400C9434000C9434000C9434000C9434005C
S11300500C94340011241FBECFE5D4E0DEBFCDBF25
S11300600E9436000C945E000C94000081B38064FE
S113007081BB8EB584608EBD8EB58C7F8EBD8DEEBA
S113008095E89DBD8CBD89B7846089BF7894FFCF06
S11300901F920F920FB60F9211248F939F9392B3D6
S11300A080E4892782BB8DEE95E89DBD8CBD9F9130
S11300B08F910F900FBE0F901F901895F894FFCF5B
S9030000FC
